{
  "transactions": [
    {
      "hash": "0xc715b9131c881f367c6065324c7df921795604ffb2c6ac15d3efa3c4df808472",
      "transactionType": "CALL",
      "contractName": null,
      "contractAddress": "0x000000000004444c5dc75cb358380d2e3de08a90",
      "function": "initialize((address,address,uint24,int24,address),uint160)",
      "arguments": [
        "(0x6c3ea9036406852006290770BEdFcAbA0e23A0e8, 0xC02aaA39b223FE8D0A0e5C4F27eAD9083C756Cc2, 3000, 60, 0x932E43d6367599aE19E1099e50e8dE2Ee7149a00)",
        "79228162514264337593543950336"
      ],
      "transaction": {
        "from": "0xf39fd6e51aad88f6f4ce6ab8827279cfffb92266",
        "to": "0x000000000004444c5dc75cb358380d2e3de08a90",
        "gas": "0xdafee",
        "value": "0x0",
        "input": "0x6276cbbe0000000000000000000000006c3ea9036406852006290770bedfcaba0e23a0e8000000000000000000000000c02aaa39b223fe8d0a0e5c4f27ead9083c756cc20000000000000000000000000000000000000000000000000000000000000bb8000000000000000000000000000000000000000000000000000000000000003c000000000000000000000000932e43d6367599ae19e1099e50e8de2ee7149a000000000000000000000000000000000000000001000000000000000000000000",
        "nonce": "0xb39",
        "chainId": "0x1"
      },
      "additionalContracts": [],
      "isFixedGasLimit": false
    }
  ],
  "receipts": [
    {
      "status": "0x1",
      "cumulativeGasUsed": "0x95bda",
      "logs": [
        {
          "address": "0x000000000004444c5dc75cb358380d2e3de08a90",
          "topics": [
            "0xdd466e674ea557f56295e2d0218a125ea4b4f0f6f3307b95f85e6110838d6438",
            "0x1658df1dbb0fae79594787ee7085fe059a28d85a889ab3c0154cfe5fa6f14fea",
            "0x0000000000000000000000006c3ea9036406852006290770bedfcaba0e23a0e8",
            "0x000000000000000000000000c02aaa39b223fe8d0a0e5c4f27ead9083c756cc2"
          ],
          "data": "0x0000000000000000000000000000000000000000000000000000000000000bb8000000000000000000000000000000000000000000000000000000000000003c000000000000000000000000932e43d6367599ae19e1099e50e8de2ee7149a0000000000000000000000000000000000000000010000000000000000000000000000000000000000000000000000000000000000000000000000000000000000",
          "blockHash": "0x597c9a58edec21d0a64bc6916447f50114374a2073c69597423806d295962b54",
          "blockNumber": "0x165e768",
          "blockTimestamp": "0x68d81bc9",
          "transactionHash": "0xc715b9131c881f367c6065324c7df921795604ffb2c6ac15d3efa3c4df808472",
          "transactionIndex": "0x0",
          "logIndex": "0x0",
          "removed": false
        }
      ],
      "logsBloom": "0x00000000008000000000000000000000000000000000000000000000000008000000000020000000000000000000000000000000000000000000000000000000000000000000000000000000000000800000000000000000000000000000000000000000000000000000000000000000000000000000000000000000000000000000000000000008000000400001000000000001000000020000000000200000000000001080000000000000100000000000000000000000000000000000000000000800000000000000000000080000000000000000000000000000000000000000000000000000000000000000000000000000000000000000000000000000",
      "type": "0x2",
      "transactionHash": "0xc715b9131c881f367c6065324c7df921795604ffb2c6ac15d3efa3c4df808472",
      "transactionIndex": "0x0",
      "blockHash": "0x597c9a58edec21d0a64bc6916447f50114374a2073c69597423806d295962b54",
      "blockNumber": "0x165e768",
      "gasUsed": "0x95bda",
      "effectiveGasPrice": "0xc6f656c",
      "blobGasPrice": "0x1",
      "from": "0xf39fd6e51aad88f6f4ce6ab8827279cfffb92266",
      "to": "0x000000000004444c5dc75cb358380d2e3de08a90",
      "contractAddress": null
    }
  ],
  "libraries": [],
  "pending": [],
  "returns": {},
  "timestamp": 1758993360469,
  "chain": 1,
  "commit": "48871b4"
}