{
  "transactions": [
    {
      "hash": "0x28b18316019b14a54c70de93a22243f0914c0f8d9ea65d4d4f5cf219a0dceed8",
      "transactionType": "CALL",
      "contractName": null,
      "contractAddress": "0x000000000004444c5dc75cb358380d2e3de08a90",
      "function": "initialize((address,address,uint24,int24,address),uint160)",
      "arguments": [
        "(0x6c3ea9036406852006290770BEdFcAbA0e23A0e8, 0xC02aaA39b223FE8D0A0e5C4F27eAD9083C756Cc2, 3000, 60, 0x1a5Ca1a4E69D0682cdF300a4bdF8F2d22928DA00)",
        "79228162514264337593543950336"
      ],
      "transaction": {
        "from": "0xf39fd6e51aad88f6f4ce6ab8827279cfffb92266",
        "to": "0x000000000004444c5dc75cb358380d2e3de08a90",
        "gas": "0xced52",
        "value": "0x0",
        "input": "0x6276cbbe0000000000000000000000006c3ea9036406852006290770bedfcaba0e23a0e8000000000000000000000000c02aaa39b223fe8d0a0e5c4f27ead9083c756cc20000000000000000000000000000000000000000000000000000000000000bb8000000000000000000000000000000000000000000000000000000000000003c0000000000000000000000001a5ca1a4e69d0682cdf300a4bdf8f2d22928da000000000000000000000000000000000000000001000000000000000000000000",
        "nonce": "0xb40",
        "chainId": "0x1"
      },
      "additionalContracts": [],
      "isFixedGasLimit": false
    }
  ],
  "receipts": [
    {
      "status": "0x1",
      "cumulativeGasUsed": "0x95be4",
      "logs": [
        {
          "address": "0x000000000004444c5dc75cb358380d2e3de08a90",
          "topics": [
            "0xdd466e674ea557f56295e2d0218a125ea4b4f0f6f3307b95f85e6110838d6438",
            "0x8b621f28cb42ec9bee07262a74351e1ac7f4eb2e328d376cc7602aae9f664738",
            "0x0000000000000000000000006c3ea9036406852006290770bedfcaba0e23a0e8",
            "0x000000000000000000000000c02aaa39b223fe8d0a0e5c4f27ead9083c756cc2"
          ],
          "data": "0x0000000000000000000000000000000000000000000000000000000000000bb8000000000000000000000000000000000000000000000000000000000000003c0000000000000000000000001a5ca1a4e69d0682cdf300a4bdf8f2d22928da0000000000000000000000000000000000000000010000000000000000000000000000000000000000000000000000000000000000000000000000000000000000",
          "blockHash": "0xff5ad84be1f2a975f8f401ab5b95a57dab1edc10fb15a89c8466a19bfdbabe02",
          "blockNumber": "0x165e76f",
          "blockTimestamp": "0x68d8478c",
          "transactionHash": "0x28b18316019b14a54c70de93a22243f0914c0f8d9ea65d4d4f5cf219a0dceed8",
          "transactionIndex": "0x0",
          "logIndex": "0x0",
          "removed": false
        }
      ],
      "logsBloom": "0x00000000000000000000000000000000000000000000000000000000000000000000000020000000000000000000000000000000000000000000000000000000000000000000000000000000000000800000000000000000000000000000000000000000000000000000000000000000000000000000000000000000000000000000000000000008000000400200000000000001000000020000000000210000000000001080000000000000100000000000000000000000000000000000000001000800000000000000000000080000000000000000000000000000000000000000000000000000000000000000000000000000000000000000000000000000",
      "type": "0x2",
      "transactionHash": "0x28b18316019b14a54c70de93a22243f0914c0f8d9ea65d4d4f5cf219a0dceed8",
      "transactionIndex": "0x0",
      "blockHash": "0xff5ad84be1f2a975f8f401ab5b95a57dab1edc10fb15a89c8466a19bfdbabe02",
      "blockNumber": "0x165e76f",
      "gasUsed": "0x95be4",
      "effectiveGasPrice": "0x53bc98c",
      "blobGasPrice": "0x1",
      "from": "0xf39fd6e51aad88f6f4ce6ab8827279cfffb92266",
      "to": "0x000000000004444c5dc75cb358380d2e3de08a90",
      "contractAddress": null
    }
  ],
  "libraries": [],
  "pending": [],
  "returns": {},
  "timestamp": 1759004563374,
  "chain": 1,
  "commit": "0f59383"
}