{
  "transactions": [
    {
      "hash": "0x78460b68708b7dbd129cf48add2932b607c19c998504fadff8ee787bc5aebd38",
      "transactionType": "CALL",
      "contractName": null,
      "contractAddress": "0x000000000004444c5dc75cb358380d2e3de08a90",
      "function": "initialize((address,address,uint24,int24,address),uint160)",
      "arguments": [
        "(0x6c3ea9036406852006290770BEdFcAbA0e23A0e8, 0xC02aaA39b223FE8D0A0e5C4F27eAD9083C756Cc2, 3000, 60, 0xa365f75b072CF8BA95e6A27A9E1f94038dCB9A00)",
        "79228162514264337593543950336"
      ],
      "transaction": {
        "from": "0xf39fd6e51aad88f6f4ce6ab8827279cfffb92266",
        "to": "0x000000000004444c5dc75cb358380d2e3de08a90",
        "gas": "0xced63",
        "value": "0x0",
        "input": "0x6276cbbe0000000000000000000000006c3ea9036406852006290770bedfcaba0e23a0e8000000000000000000000000c02aaa39b223fe8d0a0e5c4f27ead9083c756cc20000000000000000000000000000000000000000000000000000000000000bb8000000000000000000000000000000000000000000000000000000000000003c000000000000000000000000a365f75b072cf8ba95e6a27a9e1f94038dcb9a000000000000000000000000000000000000000001000000000000000000000000",
        "nonce": "0xb3c",
        "chainId": "0x1"
      },
      "additionalContracts": [],
      "isFixedGasLimit": false
    }
  ],
  "receipts": [
    {
      "status": "0x1",
      "cumulativeGasUsed": "0x95bf0",
      "logs": [
        {
          "address": "0x000000000004444c5dc75cb358380d2e3de08a90",
          "topics": [
            "0xdd466e674ea557f56295e2d0218a125ea4b4f0f6f3307b95f85e6110838d6438",
            "0x769596c8d71a501fc1dfcb9aaa4b751f8698d5a2ee1b448b732bbbac2319f597",
            "0x0000000000000000000000006c3ea9036406852006290770bedfcaba0e23a0e8",
            "0x000000000000000000000000c02aaa39b223fe8d0a0e5c4f27ead9083c756cc2"
          ],
          "data": "0x0000000000000000000000000000000000000000000000000000000000000bb8000000000000000000000000000000000000000000000000000000000000003c000000000000000000000000a365f75b072cf8ba95e6a27a9e1f94038dcb9a0000000000000000000000000000000000000000010000000000000000000000000000000000000000000000000000000000000000000000000000000000000000",
          "blockHash": "0x9e6ee4a2e82cfae6a3d4bf624e37f1bb148cc9e4c361e4a08bba2a5264e993d4",
          "blockNumber": "0x165e76b",
          "blockTimestamp": "0x68d838c4",
          "transactionHash": "0x78460b68708b7dbd129cf48add2932b607c19c998504fadff8ee787bc5aebd38",
          "transactionIndex": "0x0",
          "logIndex": "0x0",
          "removed": false
        }
      ],
      "logsBloom": "0x00000000000000000000000000000000000000000000000000000000000000000000000020000000000000000000000000000000000000000000000000000000000000000000000000020000000000800000000000000000000000000000000000000000000000000000000000000000000000000000000000000000000000000000000000000008000000400000000000000001000000020000000000200000000000001080000000000000100000000010000000000000000000000000000000000800000000000000000000080000000000000000000000000000000002000000000000000000000000000000000000000000000000000000000000000000",
      "type": "0x2",
      "transactionHash": "0x78460b68708b7dbd129cf48add2932b607c19c998504fadff8ee787bc5aebd38",
      "transactionIndex": "0x0",
      "blockHash": "0x9e6ee4a2e82cfae6a3d4bf624e37f1bb148cc9e4c361e4a08bba2a5264e993d4",
      "blockNumber": "0x165e76b",
      "gasUsed": "0x95bf0",
      "effectiveGasPrice": "0x894b26c",
      "blobGasPrice": "0x1",
      "from": "0xf39fd6e51aad88f6f4ce6ab8827279cfffb92266",
      "to": "0x000000000004444c5dc75cb358380d2e3de08a90",
      "contractAddress": null
    }
  ],
  "libraries": [],
  "pending": [],
  "returns": {},
  "timestamp": 1759000780064,
  "chain": 1,
  "commit": "d8ca544"
}