{
  "transactions": [
    {
      "hash": "0x270a14158ae84b8f0e913dd160355e66e6e0d7a8569d852c40f4a308a9611255",
      "transactionType": "CALL",
      "contractName": null,
      "contractAddress": "0x1a5ca1a4e69d0682cdf300a4bdf8f2d22928da00",
      "function": "depositToFamily((address,address,uint24,int24,address),uint256)",
      "arguments": [
        "(0x6c3ea9036406852006290770BEdFcAbA0e23A0e8, 0xC02aaA39b223FE8D0A0e5C4F27eAD9083C756Cc2, 3000, 60, 0x1a5Ca1a4E69D0682cdF300a4bdF8F2d22928DA00)",
        "0"
      ],
      "transaction": {
        "from": "0xf39fd6e51aad88f6f4ce6ab8827279cfffb92266",
        "to": "0x1a5ca1a4e69d0682cdf300a4bdf8f2d22928da00",
        "gas": "0x19f87",
        "value": "0x0",
        "input": "0x0f34caef0000000000000000000000006c3ea9036406852006290770bedfcaba0e23a0e8000000000000000000000000c02aaa39b223fe8d0a0e5c4f27ead9083c756cc20000000000000000000000000000000000000000000000000000000000000bb8000000000000000000000000000000000000000000000000000000000000003c0000000000000000000000001a5ca1a4e69d0682cdf300a4bdf8f2d22928da000000000000000000000000000000000000000000000000000000000000000000",
        "nonce": "0xb41",
        "chainId": "0x1"
      },
      "additionalContracts": [],
      "isFixedGasLimit": false
    },
    {
      "hash": "0x89fa6032677a1037b57cef7c474d144c175c42d03e262d56fd5103406b313d5d",
      "transactionType": "CALL",
      "contractName": null,
      "contractAddress": "0x1a5ca1a4e69d0682cdf300a4bdf8f2d22928da00",
      "function": "rebalancePositions((address,address,uint24,int24,address))",
      "arguments": [
        "(0x6c3ea9036406852006290770BEdFcAbA0e23A0e8, 0xC02aaA39b223FE8D0A0e5C4F27eAD9083C756Cc2, 3000, 60, 0x1a5Ca1a4E69D0682cdF300a4bdF8F2d22928DA00)"
      ],
      "transaction": {
        "from": "0xf39fd6e51aad88f6f4ce6ab8827279cfffb92266",
        "to": "0x1a5ca1a4e69d0682cdf300a4bdf8f2d22928da00",
        "gas": "0xb4d6",
        "value": "0x0",
        "input": "0x4985504c0000000000000000000000006c3ea9036406852006290770bedfcaba0e23a0e8000000000000000000000000c02aaa39b223fe8d0a0e5c4f27ead9083c756cc20000000000000000000000000000000000000000000000000000000000000bb8000000000000000000000000000000000000000000000000000000000000003c0000000000000000000000001a5ca1a4e69d0682cdf300a4bdf8f2d22928da00",
        "nonce": "0xb42",
        "chainId": "0x1"
      },
      "additionalContracts": [],
      "isFixedGasLimit": false
    }
  ],
  "receipts": [
    {
      "status": "0x1",
      "cumulativeGasUsed": "0x12cd6",
      "logs": [
        {
          "address": "0x1a5ca1a4e69d0682cdf300a4bdf8f2d22928da00",
          "topics": [
            "0xd6505d747d42cd1252d1e19769ff9192f35f77b5c5950b7cd38c590113e0c4ad",
            "0x000000000000000000000000f39fd6e51aad88f6f4ce6ab8827279cfffb92266",
            "0x8b621f28cb42ec9bee07262a74351e1ac7f4eb2e328d376cc7602aae9f664738"
          ],
          "data": "0x0000000000000000000000000000000000000000000000000000000000000000",
          "blockHash": "0x312a5cbcf3c9313e42364ff5623d788f7f6d167f0d8595dcd203f4f3934e229a",
          "blockNumber": "0x165e770",
          "blockTimestamp": "0x68d87955",
          "transactionHash": "0x270a14158ae84b8f0e913dd160355e66e6e0d7a8569d852c40f4a308a9611255",
          "transactionIndex": "0x0",
          "logIndex": "0x0",
          "removed": false
        }
      ],
      "logsBloom": "0x00000200000000000000000000000000000000000000000000000000000000000000000000000000000000000000000000000000000000000000002000000000000000000000000000000000000000000000000000000000000000000000000000000000000000000000000100000000000000000000000000000000000000000000000000000000000000000200000000000200000000000000000000010000000000000000000000000000000000000000000000000000000000000000008001000000000000200002000000000000000000002000000000000000000000000000000000000400000000000000000000000000000000000000000000000000",
      "type": "0x2",
      "transactionHash": "0x270a14158ae84b8f0e913dd160355e66e6e0d7a8569d852c40f4a308a9611255",
      "transactionIndex": "0x0",
      "blockHash": "0x312a5cbcf3c9313e42364ff5623d788f7f6d167f0d8595dcd203f4f3934e229a",
      "blockNumber": "0x165e770",
      "gasUsed": "0x12cd6",
      "effectiveGasPrice": "0x4a05434",
      "blobGasPrice": "0x1",
      "from": "0xf39fd6e51aad88f6f4ce6ab8827279cfffb92266",
      "to": "0x1a5ca1a4e69d0682cdf300a4bdf8f2d22928da00",
      "contractAddress": null
    },
    {
      "status": "0x1",
      "cumulativeGasUsed": "0x1afc3",
      "logs": [],
      "logsBloom": "0x00000000000000000000000000000000000000000000000000000000000000000000000000000000000000000000000000000000000000000000000000000000000000000000000000000000000000000000000000000000000000000000000000000000000000000000000000000000000000000000000000000000000000000000000000000000000000000000000000000000000000000000000000000000000000000000000000000000000000000000000000000000000000000000000000000000000000000000000000000000000000000000000000000000000000000000000000000000000000000000000000000000000000000000000000000000",
      "type": "0x2",
      "transactionHash": "0x89fa6032677a1037b57cef7c474d144c175c42d03e262d56fd5103406b313d5d",
      "transactionIndex": "0x1",
      "blockHash": "0x312a5cbcf3c9313e42364ff5623d788f7f6d167f0d8595dcd203f4f3934e229a",
      "blockNumber": "0x165e770",
      "gasUsed": "0x82ed",
      "effectiveGasPrice": "0x4a05434",
      "blobGasPrice": "0x1",
      "from": "0xf39fd6e51aad88f6f4ce6ab8827279cfffb92266",
      "to": "0x1a5ca1a4e69d0682cdf300a4bdf8f2d22928da00",
      "contractAddress": null
    }
  ],
  "libraries": [],
  "pending": [],
  "returns": {},
  "timestamp": 1759017309166,
  "chain": 1,
  "commit": "07b145e"
}