{
  "transactions": [
    {
      "hash": "0xc5a346192be11a3263ad9fbd59b4ea86e8f35c68de4be6ba772f8d3bac2fb7d6",
      "transactionType": "CALL",
      "contractName": null,
      "contractAddress": "0x932e43d6367599ae19e1099e50e8de2ee7149a00",
      "function": "rebalancePositions((address,address,uint24,int24,address))",
      "arguments": [
        "(0x6c3ea9036406852006290770BEdFcAbA0e23A0e8, 0xC02aaA39b223FE8D0A0e5C4F27eAD9083C756Cc2, 3000, 60, 0x932E43d6367599aE19E1099e50e8dE2Ee7149a00)"
      ],
      "transaction": {
        "from": "0xf39fd6e51aad88f6f4ce6ab8827279cfffb92266",
        "to": "0x932e43d6367599ae19e1099e50e8de2ee7149a00",
        "gas": "0xbf8c",
        "value": "0x0",
        "input": "0x4985504c0000000000000000000000006c3ea9036406852006290770bedfcaba0e23a0e8000000000000000000000000c02aaa39b223fe8d0a0e5c4f27ead9083c756cc20000000000000000000000000000000000000000000000000000000000000bb8000000000000000000000000000000000000000000000000000000000000003c000000000000000000000000932e43d6367599ae19e1099e50e8de2ee7149a00",
        "nonce": "0xb3a",
        "chainId": "0x1"
      },
      "additionalContracts": [],
      "isFixedGasLimit": false
    }
  ],
  "receipts": [
    {
      "status": "0x1",
      "cumulativeGasUsed": "0x82f9",
      "logs": [],
      "logsBloom": "0x00000000000000000000000000000000000000000000000000000000000000000000000000000000000000000000000000000000000000000000000000000000000000000000000000000000000000000000000000000000000000000000000000000000000000000000000000000000000000000000000000000000000000000000000000000000000000000000000000000000000000000000000000000000000000000000000000000000000000000000000000000000000000000000000000000000000000000000000000000000000000000000000000000000000000000000000000000000000000000000000000000000000000000000000000000000",
      "type": "0x2",
      "transactionHash": "0xc5a346192be11a3263ad9fbd59b4ea86e8f35c68de4be6ba772f8d3bac2fb7d6",
      "transactionIndex": "0x0",
      "blockHash": "0xa5b08fc01a30a583748e541345f7c38fb2f9b1ffb60658107fbe12a952d31eed",
      "blockNumber": "0x165e769",
      "gasUsed": "0x82f9",
      "effectiveGasPrice": "0xaf3c4c2",
      "blobGasPrice": "0x1",
      "from": "0xf39fd6e51aad88f6f4ce6ab8827279cfffb92266",
      "to": "0x932e43d6367599ae19e1099e50e8de2ee7149a00",
      "contractAddress": null
    }
  ],
  "libraries": [],
  "pending": [],
  "returns": {},
  "timestamp": 1758994707487,
  "chain": 1,
  "commit": "48871b4"
}