{
  "transactions": [
    {
      "hash": "0x14ebbd21b11ef504558ef559ba2d3f119bb309a8f045badef77a09a7e179dc4c",
      "transactionType": "CALL",
      "contractName": null,
      "contractAddress": "0xa365f75b072cf8ba95e6a27a9e1f94038dcb9a00",
      "function": "depositToFamily((address,address,uint24,int24,address),uint256)",
      "arguments": [
        "(0x6c3ea9036406852006290770BEdFcAbA0e23A0e8, 0xC02aaA39b223FE8D0A0e5C4F27eAD9083C756Cc2, 3000, 60, 0xa365f75b072CF8BA95e6A27A9E1f94038dCB9A00)",
        "0"
      ],
      "transaction": {
        "from": "0xf39fd6e51aad88f6f4ce6ab8827279cfffb92266",
        "to": "0xa365f75b072cf8ba95e6a27a9e1f94038dcb9a00",
        "gas": "0x1b80a",
        "value": "0x0",
        "input": "0x0f34caef0000000000000000000000006c3ea9036406852006290770bedfcaba0e23a0e8000000000000000000000000c02aaa39b223fe8d0a0e5c4f27ead9083c756cc20000000000000000000000000000000000000000000000000000000000000bb8000000000000000000000000000000000000000000000000000000000000003c000000000000000000000000a365f75b072cf8ba95e6a27a9e1f94038dcb9a000000000000000000000000000000000000000000000000000000000000000000",
        "nonce": "0xb3d",
        "chainId": "0x1"
      },
      "additionalContracts": [],
      "isFixedGasLimit": false
    },
    {
      "hash": "0x5fe39bb41c2d9ff8c2ed5838b7aba34e4d792a497ca6dfd1b92f0b50bf458ac6",
      "transactionType": "CALL",
      "contractName": null,
      "contractAddress": "0xa365f75b072cf8ba95e6a27a9e1f94038dcb9a00",
      "function": "rebalancePositions((address,address,uint24,int24,address))",
      "arguments": [
        "(0x6c3ea9036406852006290770BEdFcAbA0e23A0e8, 0xC02aaA39b223FE8D0A0e5C4F27eAD9083C756Cc2, 3000, 60, 0xa365f75b072CF8BA95e6A27A9E1f94038dCB9A00)"
      ],
      "transaction": {
        "from": "0xf39fd6e51aad88f6f4ce6ab8827279cfffb92266",
        "to": "0xa365f75b072cf8ba95e6a27a9e1f94038dcb9a00",
        "gas": "0xbf8c",
        "value": "0x0",
        "input": "0x4985504c0000000000000000000000006c3ea9036406852006290770bedfcaba0e23a0e8000000000000000000000000c02aaa39b223fe8d0a0e5c4f27ead9083c756cc20000000000000000000000000000000000000000000000000000000000000bb8000000000000000000000000000000000000000000000000000000000000003c000000000000000000000000a365f75b072cf8ba95e6a27a9e1f94038dcb9a00",
        "nonce": "0xb3e",
        "chainId": "0x1"
      },
      "additionalContracts": [],
      "isFixedGasLimit": false
    }
  ],
  "receipts": [
    {
      "status": "0x1",
      "cumulativeGasUsed": "0x12ce2",
      "logs": [
        {
          "address": "0xa365f75b072cf8ba95e6a27a9e1f94038dcb9a00",
          "topics": [
            "0xd6505d747d42cd1252d1e19769ff9192f35f77b5c5950b7cd38c590113e0c4ad",
            "0x000000000000000000000000f39fd6e51aad88f6f4ce6ab8827279cfffb92266",
            "0x769596c8d71a501fc1dfcb9aaa4b751f8698d5a2ee1b448b732bbbac2319f597"
          ],
          "data": "0x0000000000000000000000000000000000000000000000000000000000000000",
          "blockHash": "0x05067fbd7fefd64027eea3ecebb98cc6114b0da6af9fd4a2e8168362ba719126",
          "blockNumber": "0x165e76c",
          "blockTimestamp": "0x68d83b48",
          "transactionHash": "0x14ebbd21b11ef504558ef559ba2d3f119bb309a8f045badef77a09a7e179dc4c",
          "transactionIndex": "0x0",
          "logIndex": "0x0",
          "removed": false
        }
      ],
      "logsBloom": "0x00000000000000000000000000000000000000000000000000000000000000000000000000000000000000000000000000000000000000000000002000000000000000000000000800020000000000000000000000000000000000000000000000000000000000000000000100000000000000000000000000000000000000000000000000000000000000000000000000000000000000800000000000000000000000000000000000000000000000000010000000000000000000000001000000000000000000200002000000000000000000002000000000000000000002000000000000000400000000000000000000000000000000000000000000000000",
      "type": "0x2",
      "transactionHash": "0x14ebbd21b11ef504558ef559ba2d3f119bb309a8f045badef77a09a7e179dc4c",
      "transactionIndex": "0x0",
      "blockHash": "0x05067fbd7fefd64027eea3ecebb98cc6114b0da6af9fd4a2e8168362ba719126",
      "blockNumber": "0x165e76c",
      "gasUsed": "0x12ce2",
      "effectiveGasPrice": "0x7910b80",
      "blobGasPrice": "0x1",
      "from": "0xf39fd6e51aad88f6f4ce6ab8827279cfffb92266",
      "to": "0xa365f75b072cf8ba95e6a27a9e1f94038dcb9a00",
      "contractAddress": null
    },
    {
      "status": "0x1",
      "cumulativeGasUsed": "0x82f9",
      "logs": [],
      "logsBloom": "0x00000000000000000000000000000000000000000000000000000000000000000000000000000000000000000000000000000000000000000000000000000000000000000000000000000000000000000000000000000000000000000000000000000000000000000000000000000000000000000000000000000000000000000000000000000000000000000000000000000000000000000000000000000000000000000000000000000000000000000000000000000000000000000000000000000000000000000000000000000000000000000000000000000000000000000000000000000000000000000000000000000000000000000000000000000000",
      "type": "0x2",
      "transactionHash": "0x5fe39bb41c2d9ff8c2ed5838b7aba34e4d792a497ca6dfd1b92f0b50bf458ac6",
      "transactionIndex": "0x0",
      "blockHash": "0xf0d407509d8590ee2bbf2d0c01f8dab5e73c0abe1efd035eb38718c5a5cadaf8",
      "blockNumber": "0x165e76d",
      "gasUsed": "0x82f9",
      "effectiveGasPrice": "0x6a76020",
      "blobGasPrice": "0x1",
      "from": "0xf39fd6e51aad88f6f4ce6ab8827279cfffb92266",
      "to": "0xa365f75b072cf8ba95e6a27a9e1f94038dcb9a00",
      "contractAddress": null
    }
  ],
  "libraries": [],
  "pending": [],
  "returns": {},
  "timestamp": 1759001424402,
  "chain": 1,
  "commit": "d8ca544"
}